:020000040000FA
:060000000A128A110C280F
:10000800FE00030EF1000A08F2000A128A113128D4
:100018000A128A110F28F30183010A128A1114287F
:100028008316031307128312031307128E018F011D
:100038001012901290101014C33096005030950092
:100048001714971417119715831603130C150B170C
:100058008B172D280A128A110C28831203130C1DE2
:10006800362837283C280130F0007008F3070C11B7
:0E00780072088A00710E8300FE0E7E0E0900D3
:02400E00393F38
:00000001FF
